{
  "contractName": "SolnSquareVerifier",
  "abi": [
    {
      "inputs": [
        {
          "internalType": "address",
          "name": "squareVerifierAddress",
          "type": "address"
        }
      ],
      "payable": false,
      "stateMutability": "nonpayable",
      "type": "constructor"
    },
    {
      "anonymous": false,
      "inputs": [
        {
          "indexed": true,
          "internalType": "address",
          "name": "owner",
          "type": "address"
        },
        {
          "indexed": true,
          "internalType": "address",
          "name": "approved",
          "type": "address"
        },
        {
          "indexed": true,
          "internalType": "uint256",
          "name": "tokenId",
          "type": "uint256"
        }
      ],
      "name": "Approval",
      "type": "event"
    },
    {
      "anonymous": false,
      "inputs": [
        {
          "indexed": true,
          "internalType": "address",
          "name": "owner",
          "type": "address"
        },
        {
          "indexed": true,
          "internalType": "address",
          "name": "operator",
          "type": "address"
        },
        {
          "indexed": false,
          "internalType": "bool",
          "name": "approved",
          "type": "bool"
        }
      ],
      "name": "ApprovalForAll",
      "type": "event"
    },
    {
      "anonymous": false,
      "inputs": [
        {
          "indexed": true,
          "internalType": "address",
          "name": "previousOwner",
          "type": "address"
        },
        {
          "indexed": true,
          "internalType": "address",
          "name": "newOwner",
          "type": "address"
        }
      ],
      "name": "OwnershipTransferred",
      "type": "event"
    },
    {
      "anonymous": false,
      "inputs": [
        {
          "indexed": false,
          "internalType": "address",
          "name": "account",
          "type": "address"
        }
      ],
      "name": "Paused",
      "type": "event"
    },
    {
      "anonymous": false,
      "inputs": [
        {
          "indexed": true,
          "internalType": "address",
          "name": "owner",
          "type": "address"
        },
        {
          "indexed": true,
          "internalType": "uint256",
          "name": "tokenID",
          "type": "uint256"
        }
      ],
      "name": "SolutionSubmitted",
      "type": "event"
    },
    {
      "anonymous": false,
      "inputs": [
        {
          "indexed": true,
          "internalType": "address",
          "name": "from",
          "type": "address"
        },
        {
          "indexed": true,
          "internalType": "address",
          "name": "to",
          "type": "address"
        },
        {
          "indexed": true,
          "internalType": "uint256",
          "name": "tokenId",
          "type": "uint256"
        }
      ],
      "name": "Transfer",
      "type": "event"
    },
    {
      "anonymous": false,
      "inputs": [
        {
          "indexed": false,
          "internalType": "address",
          "name": "account",
          "type": "address"
        }
      ],
      "name": "Unpaused",
      "type": "event"
    },
    {
      "constant": false,
      "inputs": [
        {
          "internalType": "bytes32",
          "name": "_myid",
          "type": "bytes32"
        },
        {
          "internalType": "string",
          "name": "_result",
          "type": "string"
        }
      ],
      "name": "__callback",
      "outputs": [],
      "payable": false,
      "stateMutability": "nonpayable",
      "type": "function"
    },
    {
      "constant": false,
      "inputs": [
        {
          "internalType": "bytes32",
          "name": "_myid",
          "type": "bytes32"
        },
        {
          "internalType": "string",
          "name": "_result",
          "type": "string"
        },
        {
          "internalType": "bytes",
          "name": "_proof",
          "type": "bytes"
        }
      ],
      "name": "__callback",
      "outputs": [],
      "payable": false,
      "stateMutability": "nonpayable",
      "type": "function"
    },
    {
      "constant": false,
      "inputs": [
        {
          "internalType": "address",
          "name": "to",
          "type": "address"
        },
        {
          "internalType": "uint256",
          "name": "tokenId",
          "type": "uint256"
        }
      ],
      "name": "approve",
      "outputs": [],
      "payable": false,
      "stateMutability": "nonpayable",
      "type": "function"
    },
    {
      "constant": true,
      "inputs": [
        {
          "internalType": "address",
          "name": "owner",
          "type": "address"
        }
      ],
      "name": "balanceOf",
      "outputs": [
        {
          "internalType": "uint256",
          "name": "",
          "type": "uint256"
        }
      ],
      "payable": false,
      "stateMutability": "view",
      "type": "function"
    },
    {
      "constant": true,
      "inputs": [],
      "name": "baseTokenURI",
      "outputs": [
        {
          "internalType": "string",
          "name": "",
          "type": "string"
        }
      ],
      "payable": false,
      "stateMutability": "view",
      "type": "function"
    },
    {
      "constant": true,
      "inputs": [
        {
          "internalType": "uint256",
          "name": "tokenId",
          "type": "uint256"
        }
      ],
      "name": "getApproved",
      "outputs": [
        {
          "internalType": "address",
          "name": "",
          "type": "address"
        }
      ],
      "payable": false,
      "stateMutability": "view",
      "type": "function"
    },
    {
      "constant": true,
      "inputs": [
        {
          "internalType": "address",
          "name": "owner",
          "type": "address"
        },
        {
          "internalType": "address",
          "name": "operator",
          "type": "address"
        }
      ],
      "name": "isApprovedForAll",
      "outputs": [
        {
          "internalType": "bool",
          "name": "",
          "type": "bool"
        }
      ],
      "payable": false,
      "stateMutability": "view",
      "type": "function"
    },
    {
      "constant": true,
      "inputs": [],
      "name": "isOwner",
      "outputs": [
        {
          "internalType": "bool",
          "name": "",
          "type": "bool"
        }
      ],
      "payable": false,
      "stateMutability": "view",
      "type": "function"
    },
    {
      "constant": true,
      "inputs": [],
      "name": "name",
      "outputs": [
        {
          "internalType": "string",
          "name": "",
          "type": "string"
        }
      ],
      "payable": false,
      "stateMutability": "view",
      "type": "function"
    },
    {
      "constant": true,
      "inputs": [],
      "name": "owner",
      "outputs": [
        {
          "internalType": "address",
          "name": "",
          "type": "address"
        }
      ],
      "payable": false,
      "stateMutability": "view",
      "type": "function"
    },
    {
      "constant": true,
      "inputs": [
        {
          "internalType": "uint256",
          "name": "tokenId",
          "type": "uint256"
        }
      ],
      "name": "ownerOf",
      "outputs": [
        {
          "internalType": "address",
          "name": "",
          "type": "address"
        }
      ],
      "payable": false,
      "stateMutability": "view",
      "type": "function"
    },
    {
      "constant": false,
      "inputs": [],
      "name": "pause",
      "outputs": [],
      "payable": false,
      "stateMutability": "nonpayable",
      "type": "function"
    },
    {
      "constant": false,
      "inputs": [
        {
          "internalType": "address",
          "name": "from",
          "type": "address"
        },
        {
          "internalType": "address",
          "name": "to",
          "type": "address"
        },
        {
          "internalType": "uint256",
          "name": "tokenId",
          "type": "uint256"
        }
      ],
      "name": "safeTransferFrom",
      "outputs": [],
      "payable": false,
      "stateMutability": "nonpayable",
      "type": "function"
    },
    {
      "constant": false,
      "inputs": [
        {
          "internalType": "address",
          "name": "from",
          "type": "address"
        },
        {
          "internalType": "address",
          "name": "to",
          "type": "address"
        },
        {
          "internalType": "uint256",
          "name": "tokenId",
          "type": "uint256"
        },
        {
          "internalType": "bytes",
          "name": "_data",
          "type": "bytes"
        }
      ],
      "name": "safeTransferFrom",
      "outputs": [],
      "payable": false,
      "stateMutability": "nonpayable",
      "type": "function"
    },
    {
      "constant": false,
      "inputs": [
        {
          "internalType": "address",
          "name": "to",
          "type": "address"
        },
        {
          "internalType": "bool",
          "name": "approved",
          "type": "bool"
        }
      ],
      "name": "setApprovalForAll",
      "outputs": [],
      "payable": false,
      "stateMutability": "nonpayable",
      "type": "function"
    },
    {
      "constant": true,
      "inputs": [
        {
          "internalType": "bytes4",
          "name": "interfaceId",
          "type": "bytes4"
        }
      ],
      "name": "supportsInterface",
      "outputs": [
        {
          "internalType": "bool",
          "name": "",
          "type": "bool"
        }
      ],
      "payable": false,
      "stateMutability": "view",
      "type": "function"
    },
    {
      "constant": true,
      "inputs": [],
      "name": "symbol",
      "outputs": [
        {
          "internalType": "string",
          "name": "",
          "type": "string"
        }
      ],
      "payable": false,
      "stateMutability": "view",
      "type": "function"
    },
    {
      "constant": true,
      "inputs": [
        {
          "internalType": "uint256",
          "name": "index",
          "type": "uint256"
        }
      ],
      "name": "tokenByIndex",
      "outputs": [
        {
          "internalType": "uint256",
          "name": "",
          "type": "uint256"
        }
      ],
      "payable": false,
      "stateMutability": "view",
      "type": "function"
    },
    {
      "constant": true,
      "inputs": [
        {
          "internalType": "address",
          "name": "owner",
          "type": "address"
        },
        {
          "internalType": "uint256",
          "name": "index",
          "type": "uint256"
        }
      ],
      "name": "tokenOfOwnerByIndex",
      "outputs": [
        {
          "internalType": "uint256",
          "name": "",
          "type": "uint256"
        }
      ],
      "payable": false,
      "stateMutability": "view",
      "type": "function"
    },
    {
      "constant": true,
      "inputs": [
        {
          "internalType": "uint256",
          "name": "tokenId",
          "type": "uint256"
        }
      ],
      "name": "tokenURI",
      "outputs": [
        {
          "internalType": "string",
          "name": "",
          "type": "string"
        }
      ],
      "payable": false,
      "stateMutability": "view",
      "type": "function"
    },
    {
      "constant": true,
      "inputs": [],
      "name": "totalSupply",
      "outputs": [
        {
          "internalType": "uint256",
          "name": "",
          "type": "uint256"
        }
      ],
      "payable": false,
      "stateMutability": "view",
      "type": "function"
    },
    {
      "constant": false,
      "inputs": [
        {
          "internalType": "address",
          "name": "from",
          "type": "address"
        },
        {
          "internalType": "address",
          "name": "to",
          "type": "address"
        },
        {
          "internalType": "uint256",
          "name": "tokenId",
          "type": "uint256"
        }
      ],
      "name": "transferFrom",
      "outputs": [],
      "payable": false,
      "stateMutability": "nonpayable",
      "type": "function"
    },
    {
      "constant": false,
      "inputs": [
        {
          "internalType": "address",
          "name": "newOwner",
          "type": "address"
        }
      ],
      "name": "transferOwnership",
      "outputs": [],
      "payable": false,
      "stateMutability": "nonpayable",
      "type": "function"
    },
    {
      "constant": false,
      "inputs": [],
      "name": "unpause",
      "outputs": [],
      "payable": false,
      "stateMutability": "nonpayable",
      "type": "function"
    },
    {
      "constant": false,
      "inputs": [
        {
          "internalType": "uint256[2]",
          "name": "a",
          "type": "uint256[2]"
        },
        {
          "internalType": "uint256[2][2]",
          "name": "b",
          "type": "uint256[2][2]"
        },
        {
          "internalType": "uint256[2]",
          "name": "c",
          "type": "uint256[2]"
        },
        {
          "internalType": "uint256[2]",
          "name": "input",
          "type": "uint256[2]"
        },
        {
          "internalType": "address",
          "name": "account",
          "type": "address"
        },
        {
          "internalType": "uint256",
          "name": "tokenID",
          "type": "uint256"
        }
      ],
      "name": "submitSolution",
      "outputs": [],
      "payable": false,
      "stateMutability": "nonpayable",
      "type": "function"
    },
    {
      "constant": false,
      "inputs": [
        {
          "internalType": "address",
          "name": "to",
          "type": "address"
        },
        {
          "internalType": "uint256",
          "name": "tokenID",
          "type": "uint256"
        }
      ],
      "name": "mint",
      "outputs": [
        {
          "internalType": "bool",
          "name": "",
          "type": "bool"
        }
      ],
      "payable": false,
      "stateMutability": "nonpayable",
      "type": "function"
    }
  ],
  "bytecode": "0x60806040523480156200001157600080fd5b5060405162003e3e38038062003e3e833981810160405260208110156200003757600080fd5b81019080805190602001909291905050506040518060400160405280601281526020017f41797573682054697761726920546f6b656e00000000000000000000000000008152506040518060400160405280600281526020017f41540000000000000000000000000000000000000000000000000000000000008152506040518060600160405280603f815260200162003dff603f9139336000806101000a81548173ffffffffffffffffffffffffffffffffffffffff021916908373ffffffffffffffffffffffffffffffffffffffff1602179055506000809054906101000a900473ffffffffffffffffffffffffffffffffffffffff1673ffffffffffffffffffffffffffffffffffffffff16600073ffffffffffffffffffffffffffffffffffffffff167f8be0079c531659141344cd1fd0a4f28419497f9722a3daafe3b4186f6b6457e060405160405180910390a360008060146101000a81548160ff021916908315150217905550620001bc6301ffc9a760e01b6200029a60201b60201c565b620001d46380ac58cd60e01b6200029a60201b60201c565b620001ec63780e9d6360e01b6200029a60201b60201c565b82600f9080519060200190620002049291906200033a565b5081601090805190602001906200021d9291906200033a565b508060119080519060200190620002369291906200033a565b506200024f635b5e139f60e01b6200029a60201b60201c565b50505080601360006101000a81548173ffffffffffffffffffffffffffffffffffffffff021916908373ffffffffffffffffffffffffffffffffffffffff16021790555050620003e9565b63ffffffff60e01b817bffffffffffffffffffffffffffffffffffffffffffffffffffffffff19161415620002ce57600080fd5b6001806000837bffffffffffffffffffffffffffffffffffffffffffffffffffffffff19167bffffffffffffffffffffffffffffffffffffffffffffffffffffffff1916815260200190815260200160002060006101000a81548160ff02191690831515021790555050565b828054600181600116156101000203166002900490600052602060002090601f016020900481019282601f106200037d57805160ff1916838001178555620003ae565b82800160010185558215620003ae579182015b82811115620003ad57825182559160200191906001019062000390565b5b509050620003bd9190620003c1565b5090565b620003e691905b80821115620003e2576000816000905550600101620003c8565b5090565b90565b613a0680620003f96000396000f3fe608060405234801561001057600080fd5b506004361061018e5760003560e01c80636352211e116100de57806395d89b4111610097578063c87b56dd11610071578063c87b56dd14610c05578063d547cfb714610cac578063e985e9c514610d2f578063f2fde38b14610dab5761018e565b806395d89b4114610a2d578063a22cb46514610ab0578063b88d4fde14610b005761018e565b80636352211e146107665780636bc53017146107d457806370a082311461095f5780638456cb59146109b75780638da5cb5b146109c15780638f32d59b14610a0b5761018e565b806327dc297e1161014b5780633f4ba83a116101255780633f4ba83a1461064657806340c10f191461065057806342842e0e146106b65780634f6ccce7146107245761018e565b806327dc297e146103c35780632f745c591461048857806338bbfa50146104ea5761018e565b806301ffc9a71461019357806306fdde03146101f8578063081812fc1461027b578063095ea7b3146102e957806318160ddd1461033757806323b872dd14610355575b600080fd5b6101de600480360360208110156101a957600080fd5b8101908080357bffffffffffffffffffffffffffffffffffffffffffffffffffffffff19169060200190929190505050610def565b604051808215151515815260200191505060405180910390f35b610200610e57565b6040518080602001828103825283818151815260200191508051906020019080838360005b83811015610240578082015181840152602081019050610225565b50505050905090810190601f16801561026d5780820380516001836020036101000a031916815260200191505b509250505060405180910390f35b6102a76004803603602081101561029157600080fd5b8101908080359060200190929190505050610ef9565b604051808273ffffffffffffffffffffffffffffffffffffffff1673ffffffffffffffffffffffffffffffffffffffff16815260200191505060405180910390f35b610335600480360360408110156102ff57600080fd5b81019080803573ffffffffffffffffffffffffffffffffffffffff16906020019092919080359060200190929190505050610fb1565b005b61033f6111a7565b6040518082815260200191505060405180910390f35b6103c16004803603606081101561036b57600080fd5b81019080803573ffffffffffffffffffffffffffffffffffffffff169060200190929190803573ffffffffffffffffffffffffffffffffffffffff169060200190929190803590602001909291905050506111b4565b005b610486600480360360408110156103d957600080fd5b81019080803590602001909291908035906020019064010000000081111561040057600080fd5b82018360208201111561041257600080fd5b8035906020019184600183028401116401000000008311171561043457600080fd5b91908080601f016020809104026020016040519081016040528093929190818152602001838380828437600081840152601f19601f8201169050808301925050505050505091929192905050506111d7565b005b6104d46004803603604081101561049e57600080fd5b81019080803573ffffffffffffffffffffffffffffffffffffffff1690602001909291908035906020019092919050505061121a565b6040518082815260200191505060405180910390f35b6106446004803603606081101561050057600080fd5b81019080803590602001909291908035906020019064010000000081111561052757600080fd5b82018360208201111561053957600080fd5b8035906020019184600183028401116401000000008311171561055b57600080fd5b91908080601f016020809104026020016040519081016040528093929190818152602001838380828437600081840152601f19601f820116905080830192505050505050509192919290803590602001906401000000008111156105be57600080fd5b8201836020820111156105d057600080fd5b803590602001918460018302840111640100000000831117156105f257600080fd5b91908080601f016020809104026020016040519081016040528093929190818152602001838380828437600081840152601f19601f82011690508083019250505050505050919291929050505061128d565b005b61064e611292565b005b61069c6004803603604081101561066657600080fd5b81019080803573ffffffffffffffffffffffffffffffffffffffff169060200190929190803590602001909291905050506113f0565b604051808215151515815260200191505060405180910390f35b610722600480360360608110156106cc57600080fd5b81019080803573ffffffffffffffffffffffffffffffffffffffff169060200190929190803573ffffffffffffffffffffffffffffffffffffffff169060200190929190803590602001909291905050506115f4565b005b6107506004803603602081101561073a57600080fd5b8101908080359060200190929190505050611614565b6040518082815260200191505060405180910390f35b6107926004803603602081101561077c57600080fd5b8101908080359060200190929190505050611648565b604051808273ffffffffffffffffffffffffffffffffffffffff1673ffffffffffffffffffffffffffffffffffffffff16815260200191505060405180910390f35b61095d60048036036101808110156107eb57600080fd5b8101908080604001906002806020026040519081016040528092919082600260200280828437600081840152601f19601f82011690508083019250505050505091929192908060800190600280602002604051908101604052809291906000905b828210156108a0578382604002016002806020026040519081016040528092919082600260200280828437600081840152601f19601f8201169050808301925050505050508152602001906001019061084c565b50505050919291929080604001906002806020026040519081016040528092919082600260200280828437600081840152601f19601f820116905080830192505050505050919291929080604001906002806020026040519081016040528092919082600260200280828437600081840152601f19601f8201169050808301925050505050509192919290803573ffffffffffffffffffffffffffffffffffffffff1690602001909291908035906020019092919050505061172d565b005b6109a16004803603602081101561097557600080fd5b81019080803573ffffffffffffffffffffffffffffffffffffffff169060200190929190505050611b9a565b6040518082815260200191505060405180910390f35b6109bf611c8c565b005b6109c9611dec565b604051808273ffffffffffffffffffffffffffffffffffffffff1673ffffffffffffffffffffffffffffffffffffffff16815260200191505060405180910390f35b610a13611e15565b604051808215151515815260200191505060405180910390f35b610a35611e6c565b6040518080602001828103825283818151815260200191508051906020019080838360005b83811015610a75578082015181840152602081019050610a5a565b50505050905090810190601f168015610aa25780820380516001836020036101000a031916815260200191505b509250505060405180910390f35b610afe60048036036040811015610ac657600080fd5b81019080803573ffffffffffffffffffffffffffffffffffffffff169060200190929190803515159060200190929190505050611f0e565b005b610c0360048036036080811015610b1657600080fd5b81019080803573ffffffffffffffffffffffffffffffffffffffff169060200190929190803573ffffffffffffffffffffffffffffffffffffffff1690602001909291908035906020019092919080359060200190640100000000811115610b7d57600080fd5b820183602082011115610b8f57600080fd5b80359060200191846001830284011164010000000083111715610bb157600080fd5b91908080601f016020809104026020016040519081016040528093929190818152602001838380828437600081840152601f19601f820116905080830192505050505050509192919290505050612048565b005b610c3160048036036020811015610c1b57600080fd5b810190808035906020019092919050505061206e565b6040518080602001828103825283818151815260200191508051906020019080838360005b83811015610c71578082015181840152602081019050610c56565b50505050905090810190601f168015610c9e5780820380516001836020036101000a031916815260200191505b509250505060405180910390f35b610cb461219e565b6040518080602001828103825283818151815260200191508051906020019080838360005b83811015610cf4578082015181840152602081019050610cd9565b50505050905090810190601f168015610d215780820380516001836020036101000a031916815260200191505b509250505060405180910390f35b610d9160048036036040811015610d4557600080fd5b81019080803573ffffffffffffffffffffffffffffffffffffffff169060200190929190803573ffffffffffffffffffffffffffffffffffffffff169060200190929190505050612240565b604051808215151515815260200191505060405180910390f35b610ded60048036036020811015610dc157600080fd5b81019080803573ffffffffffffffffffffffffffffffffffffffff1690602001909291905050506122d4565b005b600060016000837bffffffffffffffffffffffffffffffffffffffffffffffffffffffff19167bffffffffffffffffffffffffffffffffffffffffffffffffffffffff1916815260200190815260200160002060009054906101000a900460ff169050919050565b6060600f8054600181600116156101000203166002900480601f016020809104026020016040519081016040528092919081815260200182805460018160011615610100020316600290048015610eef5780601f10610ec457610100808354040283529160200191610eef565b820191906000526020600020905b815481529060010190602001808311610ed257829003601f168201915b5050505050905090565b6000610f0482612492565b610f76576040517f08c379a00000000000000000000000000000000000000000000000000000000081526004018080602001828103825260148152602001807f746f6b656e20646f6573206e6f7420657869737400000000000000000000000081525060200191505060405180910390fd5b6003600083815260200190815260200160002060009054906101000a900473ffffffffffffffffffffffffffffffffffffffff169050919050565b6000610fbc82611648565b90508273ffffffffffffffffffffffffffffffffffffffff168173ffffffffffffffffffffffffffffffffffffffff161415611060576040517f08c379a00000000000000000000000000000000000000000000000000000000081526004018080602001828103825260208152602001807f6f776e65722063616e6e6f7420617070726f7665206f776e206164647265737381525060200191505060405180910390fd5b8073ffffffffffffffffffffffffffffffffffffffff163373ffffffffffffffffffffffffffffffffffffffff1614806110a0575061109f8133612240565b5b6110f5576040517f08c379a000000000000000000000000000000000000000000000000000000000815260040180806020018281038252605b815260200180613929605b913960600191505060405180910390fd5b826003600084815260200190815260200160002060006101000a81548173ffffffffffffffffffffffffffffffffffffffff021916908373ffffffffffffffffffffffffffffffffffffffff160217905550818373ffffffffffffffffffffffffffffffffffffffff168273ffffffffffffffffffffffffffffffffffffffff167f8c5be1e5ebec7d5bd14f71427d1e84f3dd0314c0f7b2291e5b200ac8c7c3b92560405160405180910390a4505050565b6000600880549050905090565b6111be3382612504565b6111c757600080fd5b6111d2838383612599565b505050565b611216828260006040519080825280601f01601f1916602001820160405280156112105781602001600182028038833980820191505090505b5061128d565b5050565b600061122583611b9a565b821061123057600080fd5b600660008473ffffffffffffffffffffffffffffffffffffffff1673ffffffffffffffffffffffffffffffffffffffff168152602001908152602001600020828154811061127a57fe5b9060005260206000200154905092915050565b505050565b61129a611e15565b6112ef576040517f08c379a00000000000000000000000000000000000000000000000000000000081526004018080602001828103825260218152602001806138966021913960400191505060405180910390fd5b600060149054906101000a900460ff16611371576040517f08c379a00000000000000000000000000000000000000000000000000000000081526004018080602001828103825260208152602001807f636f6e74726163742069732063757272656e746c79206e6f742070617573656481525060200191505060405180910390fd5b60008060146101000a81548160ff0219169083151502179055507f5db9ee0a495bf2e6ff9c91a7834c1ba4fdd244a5e8aa4e537bd38aeae4b073aa33604051808273ffffffffffffffffffffffffffffffffffffffff1673ffffffffffffffffffffffffffffffffffffffff16815260200191505060405180910390a1565b600080601560008481526020019081526020016000205490506000801b811415611465576040517f08c379a00000000000000000000000000000000000000000000000000000000081526004018080602001828103825260288152602001806139016028913960400191505060405180910390fd5b6014600082815260200190815260200160002060040160009054906101000a900460ff16156114df576040517f08c379a00000000000000000000000000000000000000000000000000000000081526004018080602001828103825260218152602001806139846021913960400191505060405180910390fd5b6000601460006015600087815260200190815260200160002054815260200190815260200160002060010160009054906101000a900473ffffffffffffffffffffffffffffffffffffffff1690508473ffffffffffffffffffffffffffffffffffffffff168173ffffffffffffffffffffffffffffffffffffffff16146115b1576040517f08c379a00000000000000000000000000000000000000000000000000000000081526004018080602001828103825260228152602001806138746022913960400191505060405180910390fd5b60016014600084815260200190815260200160002060040160006101000a81548160ff0219169083151502179055506115ea85856125bd565b9250505092915050565b61160f83838360405180602001604052806000815250612048565b505050565b600061161e6111a7565b821061162957600080fd5b6008828154811061163657fe5b90600052602060002001549050919050565b6000806002600084815260200190815260200160002060009054906101000a900473ffffffffffffffffffffffffffffffffffffffff169050600073ffffffffffffffffffffffffffffffffffffffff168173ffffffffffffffffffffffffffffffffffffffff161415611724576040517f08c379a000000000000000000000000000000000000000000000000000000000815260040180806020018281038252601b8152602001807f6f776e6572206d7573742062652076616c69642061646472657373000000000081525060200191505060405180910390fd5b80915050919050565b601360009054906101000a900473ffffffffffffffffffffffffffffffffffffffff1673ffffffffffffffffffffffffffffffffffffffff1663621e9ec0878787876040518563ffffffff1660e01b81526004018085600260200280838360005b838110156117a957808201518184015260208101905061178e565b505050509050018460026000925b818410156117fd5782846020020151600260200280838360005b838110156117ec5780820151818401526020810190506117d1565b5050505090500192600101926117b7565b9250505083600260200280838360005b8381101561182857808201518184015260208101905061180d565b5050505090500182600260200280838360005b8381101561185657808201518184015260208101905061183b565b50505050905001945050505050602060405180830381600087803b15801561187d57600080fd5b505af1158015611891573d6000803e3d6000fd5b505050506040513d60208110156118a757600080fd5b810190808051906020019092919050505061192a576040517f08c379a000000000000000000000000000000000000000000000000000000000815260040180806020018281038252601d8152602001807f756e61626c6520746f207665726966792074686520736f6c7574696f6e00000081525060200191505060405180910390fd5b6000868686866040516020018085600260200280838360005b8381101561195e578082015181840152602081019050611943565b505050509050018460026000925b818410156119b25782846020020151600260200280838360005b838110156119a1578082015181840152602081019050611986565b50505050905001926001019261196c565b9250505083600260200280838360005b838110156119dd5780820151818401526020810190506119c2565b5050505090500182600260200280838360005b83811015611a0b5780820151818401526020810190506119f0565b505050509050019450505050506040516020818303038152906040528051906020012090506000601460008381526020019081526020016000206000015414611a9f576040517f08c379a000000000000000000000000000000000000000000000000000000000815260040180806020018281038252604a8152602001806138b7604a913960600191505060405180910390fd5b806015600084815260200190815260200160002081905550826014600083815260200190815260200160002060010160006101000a81548173ffffffffffffffffffffffffffffffffffffffff021916908373ffffffffffffffffffffffffffffffffffffffff1602179055508160146000838152602001908152602001600020600001819055508360146000838152602001908152602001600020600201906002611b4c929190613762565b50818373ffffffffffffffffffffffffffffffffffffffff167fa1cc0f96f4271e0214bdad9a3900ecacb3e1deff8f94e0e400a026ab70cd224c60405160405180910390a350505050505050565b60008073ffffffffffffffffffffffffffffffffffffffff168273ffffffffffffffffffffffffffffffffffffffff161415611c3e576040517f08c379a000000000000000000000000000000000000000000000000000000000815260040180806020018281038252601b8152602001807f6f776e6572206d7573742062652076616c69642061646472657373000000000081525060200191505060405180910390fd5b611c85600460008473ffffffffffffffffffffffffffffffffffffffff1673ffffffffffffffffffffffffffffffffffffffff168152602001908152602001600020612639565b9050919050565b611c94611e15565b611ce9576040517f08c379a00000000000000000000000000000000000000000000000000000000081526004018080602001828103825260218152602001806138966021913960400191505060405180910390fd5b600060149054906101000a900460ff1615611d6c576040517f08c379a000000000000000000000000000000000000000000000000000000000815260040180806020018281038252601c8152602001807f636f6e74726163742069732063757272656e746c79207061757365640000000081525060200191505060405180910390fd5b6001600060146101000a81548160ff0219169083151502179055507f62e78cea01bee320cd4e420270b5ea74000d11b0c9f74754ebdbfc544b05a25833604051808273ffffffffffffffffffffffffffffffffffffffff1673ffffffffffffffffffffffffffffffffffffffff16815260200191505060405180910390a1565b60008060009054906101000a900473ffffffffffffffffffffffffffffffffffffffff16905090565b60008060009054906101000a900473ffffffffffffffffffffffffffffffffffffffff1673ffffffffffffffffffffffffffffffffffffffff163373ffffffffffffffffffffffffffffffffffffffff1614905090565b606060108054600181600116156101000203166002900480601f016020809104026020016040519081016040528092919081815260200182805460018160011615610100020316600290048015611f045780601f10611ed957610100808354040283529160200191611f04565b820191906000526020600020905b815481529060010190602001808311611ee757829003601f168201915b5050505050905090565b3373ffffffffffffffffffffffffffffffffffffffff168273ffffffffffffffffffffffffffffffffffffffff161415611f4757600080fd5b80600560003373ffffffffffffffffffffffffffffffffffffffff1673ffffffffffffffffffffffffffffffffffffffff16815260200190815260200160002060008473ffffffffffffffffffffffffffffffffffffffff1673ffffffffffffffffffffffffffffffffffffffff16815260200190815260200160002060006101000a81548160ff0219169083151502179055508173ffffffffffffffffffffffffffffffffffffffff163373ffffffffffffffffffffffffffffffffffffffff167f17307eab39ab6107e8899845ad3d59bd9653f200f220920489ca2b5937696c3183604051808215151515815260200191505060405180910390a35050565b6120538484846111b4565b61205f84848484612647565b61206857600080fd5b50505050565b606061207982612492565b6120eb576040517f08c379a00000000000000000000000000000000000000000000000000000000081526004018080602001828103825260148152602001807f746f6b656e20646f6573206e6f7420657869737400000000000000000000000081525060200191505060405180910390fd5b601260008381526020019081526020016000208054600181600116156101000203166002900480601f0160208091040260200160405190810160405280929190818152602001828054600181600116156101000203166002900480156121925780601f1061216757610100808354040283529160200191612192565b820191906000526020600020905b81548152906001019060200180831161217557829003601f168201915b50505050509050919050565b606060118054600181600116156101000203166002900480601f0160208091040260200160405190810160405280929190818152602001828054600181600116156101000203166002900480156122365780601f1061220b57610100808354040283529160200191612236565b820191906000526020600020905b81548152906001019060200180831161221957829003601f168201915b5050505050905090565b6000600560008473ffffffffffffffffffffffffffffffffffffffff1673ffffffffffffffffffffffffffffffffffffffff16815260200190815260200160002060008373ffffffffffffffffffffffffffffffffffffffff1673ffffffffffffffffffffffffffffffffffffffff16815260200190815260200160002060009054906101000a900460ff16905092915050565b6122dc611e15565b612331576040517f08c379a00000000000000000000000000000000000000000000000000000000081526004018080602001828103825260218152602001806138966021913960400191505060405180910390fd5b600073ffffffffffffffffffffffffffffffffffffffff168173ffffffffffffffffffffffffffffffffffffffff1614156123d4576040517f08c379a000000000000000000000000000000000000000000000000000000000815260040180806020018281038252601b8152602001807f6f776e6572206d7573742062652076616c69642061646472657373000000000081525060200191505060405180910390fd5b8073ffffffffffffffffffffffffffffffffffffffff166000809054906101000a900473ffffffffffffffffffffffffffffffffffffffff1673ffffffffffffffffffffffffffffffffffffffff167f8be0079c531659141344cd1fd0a4f28419497f9722a3daafe3b4186f6b6457e060405160405180910390a3806000806101000a81548173ffffffffffffffffffffffffffffffffffffffff021916908373ffffffffffffffffffffffffffffffffffffffff16021790555050565b6000806002600084815260200190815260200160002060009054906101000a900473ffffffffffffffffffffffffffffffffffffffff169050600073ffffffffffffffffffffffffffffffffffffffff168173ffffffffffffffffffffffffffffffffffffffff161415915050919050565b60008061251083611648565b90508073ffffffffffffffffffffffffffffffffffffffff168473ffffffffffffffffffffffffffffffffffffffff16148061257f57508373ffffffffffffffffffffffffffffffffffffffff1661256784610ef9565b73ffffffffffffffffffffffffffffffffffffffff16145b80612590575061258f8185612240565b5b91505092915050565b6125a4838383612830565b6125ae8382612aa8565b6125b88282612c46565b505050565b60006125c7611e15565b61261c576040517f08c379a00000000000000000000000000000000000000000000000000000000081526004018080602001828103825260218152602001806138966021913960400191505060405180910390fd5b6126268383612d0d565b61262f82612d2e565b6001905092915050565b600081600001549050919050565b60006126688473ffffffffffffffffffffffffffffffffffffffff16612e7f565b6126755760019050612828565b60008473ffffffffffffffffffffffffffffffffffffffff1663150b7a02338887876040518563ffffffff1660e01b8152600401808573ffffffffffffffffffffffffffffffffffffffff1673ffffffffffffffffffffffffffffffffffffffff1681526020018473ffffffffffffffffffffffffffffffffffffffff1673ffffffffffffffffffffffffffffffffffffffff16815260200183815260200180602001828103825283818151815260200191508051906020019080838360005b83811015612750578082015181840152602081019050612735565b50505050905090810190601f16801561277d5780820380516001836020036101000a031916815260200191505b5095505050505050602060405180830381600087803b15801561279f57600080fd5b505af11580156127b3573d6000803e3d6000fd5b505050506040513d60208110156127c957600080fd5b8101908080519060200190929190505050905063150b7a0260e01b7bffffffffffffffffffffffffffffffffffffffffffffffffffffffff1916817bffffffffffffffffffffffffffffffffffffffffffffffffffffffff1916149150505b949350505050565b8273ffffffffffffffffffffffffffffffffffffffff1661285082611648565b73ffffffffffffffffffffffffffffffffffffffff16146128bc576040517f08c379a000000000000000000000000000000000000000000000000000000000815260040180806020018281038252602d8152602001806139a5602d913960400191505060405180910390fd5b600073ffffffffffffffffffffffffffffffffffffffff168273ffffffffffffffffffffffffffffffffffffffff16141561295f576040517f08c379a00000000000000000000000000000000000000000000000000000000081526004018080602001828103825260148152602001807f61646472657373206973206e6f742076616c696400000000000000000000000081525060200191505060405180910390fd5b61296881612eca565b6129af600460008473ffffffffffffffffffffffffffffffffffffffff1673ffffffffffffffffffffffffffffffffffffffff168152602001908152602001600020612f88565b6129f6600460008573ffffffffffffffffffffffffffffffffffffffff1673ffffffffffffffffffffffffffffffffffffffff168152602001908152602001600020612f9e565b816002600083815260200190815260200160002060006101000a81548173ffffffffffffffffffffffffffffffffffffffff021916908373ffffffffffffffffffffffffffffffffffffffff160217905550808273ffffffffffffffffffffffffffffffffffffffff168473ffffffffffffffffffffffffffffffffffffffff167fddf252ad1be2c89b69c2b068fc378daa952ba7f163c4a11628f55a4df523b3ef60405160405180910390a4505050565b6000612b006001600660008673ffffffffffffffffffffffffffffffffffffffff1673ffffffffffffffffffffffffffffffffffffffff16815260200190815260200160002080549050612fc190919063ffffffff16565b9050600060076000848152602001908152602001600020549050818114612bed576000600660008673ffffffffffffffffffffffffffffffffffffffff1673ffffffffffffffffffffffffffffffffffffffff1681526020019081526020016000208381548110612b6d57fe5b9060005260206000200154905080600660008773ffffffffffffffffffffffffffffffffffffffff1673ffffffffffffffffffffffffffffffffffffffff1681526020019081526020016000208381548110612bc557fe5b9060005260206000200181905550816007600083815260200190815260200160002081905550505b600660008573ffffffffffffffffffffffffffffffffffffffff1673ffffffffffffffffffffffffffffffffffffffff168152602001908152602001600020805480919060019003612c3f91906137a2565b5050505050565b600660008373ffffffffffffffffffffffffffffffffffffffff1673ffffffffffffffffffffffffffffffffffffffff168152602001908152602001600020805490506007600083815260200190815260200160002081905550600660008373ffffffffffffffffffffffffffffffffffffffff1673ffffffffffffffffffffffffffffffffffffffff1681526020019081526020016000208190806001815401808255809150509060018203906000526020600020016000909192909190915055505050565b612d17828261300b565b612d218282612c46565b612d2a81613223565b5050565b612d3781612492565b612da9576040517f08c379a00000000000000000000000000000000000000000000000000000000081526004018080602001828103825260148152602001807f746f6b656e20646f6573206e6f7420657869737400000000000000000000000081525060200191505060405180910390fd5b612e5560118054600181600116156101000203166002900480601f016020809104026020016040519081016040528092919081815260200182805460018160011615610100020316600290048015612e425780601f10612e1757610100808354040283529160200191612e42565b820191906000526020600020905b815481529060010190602001808311612e2557829003601f168201915b5050505050612e508361326f565b61339c565b601260008381526020019081526020016000209080519060200190612e7b9291906137ce565b5050565b60008060007fc5d2460186f7233c927e7db2dcc703c0e500b653ca82273b7bfad8045d85a47060001b9050833f9150808214158015612ec157506000801b8214155b92505050919050565b600073ffffffffffffffffffffffffffffffffffffffff166003600083815260200190815260200160002060009054906101000a900473ffffffffffffffffffffffffffffffffffffffff1673ffffffffffffffffffffffffffffffffffffffff1614612f855760006003600083815260200190815260200160002060006101000a81548173ffffffffffffffffffffffffffffffffffffffff021916908373ffffffffffffffffffffffffffffffffffffffff1602179055505b50565b6001816000016000828254019250508190555050565b612fb660018260000154612fc190919063ffffffff16565b816000018190555050565b600061300383836040518060400160405280601e81526020017f536166654d6174683a207375627472616374696f6e206f766572666c6f7700008152506133e0565b905092915050565b61301481612492565b15613087576040517f08c379a00000000000000000000000000000000000000000000000000000000081526004018080602001828103825260178152602001807f746f6b656e20494420646f6573206e6f7420657869737400000000000000000081525060200191505060405180910390fd5b600073ffffffffffffffffffffffffffffffffffffffff168273ffffffffffffffffffffffffffffffffffffffff16141561312a576040517f08c379a00000000000000000000000000000000000000000000000000000000081526004018080602001828103825260148152602001807f61646472657373206973206e6f742076616c696400000000000000000000000081525060200191505060405180910390fd5b816002600083815260200190815260200160002060006101000a81548173ffffffffffffffffffffffffffffffffffffffff021916908373ffffffffffffffffffffffffffffffffffffffff1602179055506131c3600460008473ffffffffffffffffffffffffffffffffffffffff1673ffffffffffffffffffffffffffffffffffffffff168152602001908152602001600020612f88565b808273ffffffffffffffffffffffffffffffffffffffff16600073ffffffffffffffffffffffffffffffffffffffff167fddf252ad1be2c89b69c2b068fc378daa952ba7f163c4a11628f55a4df523b3ef60405160405180910390a45050565b6008805490506009600083815260200190815260200160002081905550600881908060018154018082558091505090600182039060005260206000200160009091929091909150555050565b606060008214156132b7576040518060400160405280600181526020017f30000000000000000000000000000000000000000000000000000000000000008152509050613397565b600082905060005b600082146132e1578080600101915050600a82816132d957fe5b0491506132bf565b6060816040519080825280601f01601f1916602001820160405280156133165781602001600182028038833980820191505090505b50905060006001830390505b6000861461338f57600a868161333457fe5b0660300160f81b8282806001900393508151811061334e57fe5b60200101907effffffffffffffffffffffffffffffffffffffffffffffffffffffffffffff1916908160001a905350600a868161338757fe5b049550613322565b819450505050505b919050565b60606133d883836040518060200160405280600081525060405180602001604052806000815250604051806020016040528060008152506134a0565b905092915050565b600083831115829061348d576040517f08c379a00000000000000000000000000000000000000000000000000000000081526004018080602001828103825283818151815260200191508051906020019080838360005b83811015613452578082015181840152602081019050613437565b50505050905090810190601f16801561347f5780820380516001836020036101000a031916815260200191505b509250505060405180910390fd5b5060008385039050809150509392505050565b6060808690506060869050606086905060608690506060869050606081518351855187518951010101016040519080825280601f01601f1916602001820160405280156134fc5781602001600182028038833980820191505090505b509050606081905060008090506000809050600090505b88518110156135815788818151811061352857fe5b602001015160f81c60f81b83838060010194508151811061354557fe5b60200101907effffffffffffffffffffffffffffffffffffffffffffffffffffffffffffff1916908160001a9053508080600101915050613513565b600090505b87518110156135f45787818151811061359b57fe5b602001015160f81c60f81b8383806001019450815181106135b857fe5b60200101907effffffffffffffffffffffffffffffffffffffffffffffffffffffffffffff1916908160001a9053508080600101915050613586565b600090505b86518110156136675786818151811061360e57fe5b602001015160f81c60f81b83838060010194508151811061362b57fe5b60200101907effffffffffffffffffffffffffffffffffffffffffffffffffffffffffffff1916908160001a90535080806001019150506135f9565b600090505b85518110156136da5785818151811061368157fe5b602001015160f81c60f81b83838060010194508151811061369e57fe5b60200101907effffffffffffffffffffffffffffffffffffffffffffffffffffffffffffff1916908160001a905350808060010191505061366c565b600090505b845181101561374d578481815181106136f457fe5b602001015160f81c60f81b83838060010194508151811061371157fe5b60200101907effffffffffffffffffffffffffffffffffffffffffffffffffffffffffffff1916908160001a90535080806001019150506136df565b82995050505050505050505095945050505050565b8260028101928215613791579160200282015b82811115613790578251825591602001919060010190613775565b5b50905061379e919061384e565b5090565b8154818355818111156137c9578183600052602060002091820191016137c8919061384e565b5b505050565b828054600181600116156101000203166002900490600052602060002090601f016020900481019282601f1061380f57805160ff191683800117855561383d565b8280016001018555821561383d579182015b8281111561383c578251825591602001919060010190613821565b5b50905061384a919061384e565b5090565b61387091905b8082111561386c576000816000905550600101613854565b5090565b9056fe77726f6e6720746f6b656e206f776e657220616464726573732070726f766964656463616c6c6572206d7573742062652074686520636f6e7472616374206f776e6572736f6c7574696f6e2068617320616c7265616479206265656e20757365642070726576696f75736c793b206372656174652061206e6577206f6e65207573696e67205a6f4b72617465736e6f20736f6c7574696f6e207375626d697474656420666f7220676976656e20746f6b656e2049446d6573736167652073656e646572206e6565647320746f20626520746865206f776e6572206f662074686520636f6e7472616374206f7220617070726f766520666f7220616c6c206e6565647320746f20626520656e61626c656474686520746f6b656e2068617320616c7265616479206265656e206d696e746564736f757263652061646472657373206d75737420626520746865206f776e6572206f662074686520746f6b656ea265627a7a7231582090600157ee43006173fc9da5ab3724412f8aa23769e879ca3a5fbe09f7b6056d64736f6c6343000511003268747470733a2f2f73332d75732d776573742d322e616d617a6f6e6177732e636f6d2f756461636974792d626c6f636b636861696e2f63617073746f6e652f",
  "source": "\n// SPDX-License-Identifier: MIT\npragma solidity >=0.4.21 <0.6.0;\n\n// Define a contract call to the zokrates generated solidity contract <Verifier> or <renamedVerifier>\nimport \"./ERC721Mintable.sol\";\nimport \"./SquareVerifier.sol\";\n\n\n// Define another contract named SolnSquareVerifier that inherits from your ERC721Mintable class\ncontract SolnSquareVerifier is CustomERC721Token {\n  SquareVerifier squareVerifier;\n\n  constructor(address squareVerifierAddress) public {\n    squareVerifier = SquareVerifier(squareVerifierAddress);\n  }\n\n  // Define a solutions struct that can hold an index & an address\n  struct Solution {\n    uint256 tokenID;\n    address owner;\n    uint256[2] input;\n    bool isMinted;\n  }\n\n  // Define an array of the above struct\n  mapping(bytes32 => Solution) solutions;\n\n  // Define a mapping to store unique solutions submitted\n  mapping(uint256 => bytes32) private solutionSubmissions;\n\n  // Create an event to emit when a solution is added\n  event SolutionSubmitted(address indexed owner, uint256 indexed tokenID);\n\n  // Create a function to add the solutions to the array and emit the event\n  function submitSolution (uint[2] memory a, uint[2][2] memory b, uint[2] memory c, uint[2] memory input, address account, uint256 tokenID) public {\n    require(squareVerifier.verifyTx(a, b, c, input), \"unable to verify the solution\");\n\n    // Hash a, b, c and the input to create a unique key for the solution\n    bytes32 solutionKey = keccak256(abi.encodePacked(a, b, c, input));\n\n    require(solutions[solutionKey].tokenID == 0, \"solution has already been used previously; create a new one using ZoKrates\");\n\n    solutionSubmissions[tokenID] = solutionKey;\n    solutions[solutionKey].owner = account;\n    solutions[solutionKey].tokenID = tokenID;\n    solutions[solutionKey].input = input;\n\n    emit SolutionSubmitted(account, tokenID);\n  }\n\n  // Create a function to mint new NFT only after the solution has been verified\n  //  - make sure the solution is unique (has not been used before)\n  //  - make sure you handle metadata as well as token supply\n  function mint(address to, uint256 tokenID) public returns(bool) {\n    bytes32 solutionKey = solutionSubmissions[tokenID];\n    require(solutionKey != bytes32(0), \"no solution submitted for given token ID\");\n    require(!solutions[solutionKey].isMinted, \"the token has already been minted\");\n\n    address owner = solutions[solutionSubmissions[tokenID]].owner;\n    require(owner == to, \"wrong token owner address provided\");\n\n    solutions[solutionKey].isMinted = true;\n    return super.mint(to, tokenID);\n  }\n}\n",
  "sourcePath": "/home/cipher/Desktop/capstone_blockchain/eth-contracts/contracts/SolnSquareVerifier.sol",
  "compiler": {
    "name": "solc",
    "version": "0.5.17+commit.d19bba13.Emscripten.clang"
  },
  "schemaVersion": "3.2.0",
  "updatedAt": "2020-06-29T12:47:40.278Z",
  "networkType": "ethereum",
  "devdoc": {
    "methods": {
      "isApprovedForAll(address,address)": {
        "details": "Tells whether an operator is approved by a given owner",
        "params": {
          "operator": "operator address which you want to query the approval of",
          "owner": "owner address which you want to query the approval of"
        },
        "return": "bool whether the given operator is approved by the given owner"
      },
      "setApprovalForAll(address,bool)": {
        "details": "Sets or unsets the approval of a given operator An operator is allowed to transfer all tokens of the sender on their behalf",
        "params": {
          "approved": "representing the status of the approval to be set",
          "to": "operator address to set the approval"
        }
      },
      "supportsInterface(bytes4)": {
        "details": "implement supportsInterface(bytes4) using a lookup table"
      },
      "tokenByIndex(uint256)": {
        "details": "Gets the token ID at a given index of all the tokens in this contract Reverts if the index is greater or equal to the total number of tokens",
        "params": {
          "index": "uint256 representing the index to be accessed of the tokens list"
        },
        "return": "uint256 token ID at the given index of the tokens list"
      },
      "tokenOfOwnerByIndex(address,uint256)": {
        "details": "Gets the token ID at a given index of the tokens list of the requested owner",
        "params": {
          "index": "uint256 representing the index to be accessed of the requested tokens list",
          "owner": "address owning the tokens list to be accessed"
        },
        "return": "uint256 token ID at the given index of the tokens list owned by the requested address"
      },
      "totalSupply()": {
        "details": "Gets the total amount of tokens stored by the contract",
        "return": "uint256 representing the total amount of tokens"
      }
    }
  },
  "userdoc": {
    "methods": {}
  }
}